{
  "_format": "hh-sol-artifact-1",
  "contractName": "Campaign",
  "sourceName": "contracts/Campaign.sol",
  "abi": [
    {
      "inputs": [
        {
          "internalType": "uint256",
          "name": "_target",
          "type": "uint256"
        },
        {
          "internalType": "uint256",
          "name": "_deadline",
          "type": "uint256"
        },
        {
          "internalType": "string",
          "name": "_dataURI",
          "type": "string"
        },
        {
          "internalType": "address",
          "name": "_manager",
          "type": "address"
        }
      ],
      "stateMutability": "nonpayable",
      "type": "constructor"
    },
    {
      "anonymous": false,
      "inputs": [
        {
          "indexed": true,
          "internalType": "address",
          "name": "previousOwner",
          "type": "address"
        },
        {
          "indexed": true,
          "internalType": "address",
          "name": "newOwner",
          "type": "address"
        }
      ],
      "name": "OwnershipTransferred",
      "type": "event"
    },
    {
      "anonymous": false,
      "inputs": [
        {
          "indexed": false,
          "internalType": "bool",
          "name": "isCompleted",
          "type": "bool"
        },
        {
          "indexed": false,
          "internalType": "uint256",
          "name": "value",
          "type": "uint256"
        },
        {
          "indexed": false,
          "internalType": "address",
          "name": "recipient",
          "type": "address"
        },
        {
          "indexed": false,
          "internalType": "uint256",
          "name": "noOfVoters",
          "type": "uint256"
        }
      ],
      "name": "finalized",
      "type": "event"
    },
    {
      "anonymous": false,
      "inputs": [
        {
          "indexed": false,
          "internalType": "address",
          "name": "funder",
          "type": "address"
        },
        {
          "indexed": false,
          "internalType": "uint256",
          "name": "amount",
          "type": "uint256"
        },
        {
          "indexed": false,
          "internalType": "uint256",
          "name": "timestamp",
          "type": "uint256"
        }
      ],
      "name": "funded",
      "type": "event"
    },
    {
      "anonymous": false,
      "inputs": [
        {
          "indexed": false,
          "internalType": "address",
          "name": "funder",
          "type": "address"
        },
        {
          "indexed": false,
          "internalType": "uint256",
          "name": "amount",
          "type": "uint256"
        },
        {
          "indexed": false,
          "internalType": "uint256",
          "name": "timestamp",
          "type": "uint256"
        }
      ],
      "name": "reFunded",
      "type": "event"
    },
    {
      "anonymous": false,
      "inputs": [
        {
          "indexed": false,
          "internalType": "bool",
          "name": "isCompleted",
          "type": "bool"
        },
        {
          "indexed": false,
          "internalType": "uint256",
          "name": "value",
          "type": "uint256"
        },
        {
          "indexed": false,
          "internalType": "address",
          "name": "recipient",
          "type": "address"
        },
        {
          "indexed": false,
          "internalType": "uint256",
          "name": "noOfVoters",
          "type": "uint256"
        }
      ],
      "name": "requested",
      "type": "event"
    },
    {
      "anonymous": false,
      "inputs": [
        {
          "indexed": false,
          "internalType": "address",
          "name": "voter",
          "type": "address"
        },
        {
          "indexed": false,
          "internalType": "uint256",
          "name": "noOfVotes",
          "type": "uint256"
        },
        {
          "indexed": false,
          "internalType": "uint256",
          "name": "timestamp",
          "type": "uint256"
        }
      ],
      "name": "voted",
      "type": "event"
    },
    {
      "inputs": [
        {
          "internalType": "address payable",
          "name": "_recipient",
          "type": "address"
        },
        {
          "internalType": "uint256",
          "name": "_value",
          "type": "uint256"
        },
        {
          "internalType": "string",
          "name": "_dataURI",
          "type": "string"
        }
      ],
      "name": "createRequest",
      "outputs": [],
      "stateMutability": "payable",
      "type": "function"
    },
    {
      "inputs": [
        {
          "internalType": "uint256",
          "name": "requestNo",
          "type": "uint256"
        }
      ],
      "name": "finalizeRequest",
      "outputs": [],
      "stateMutability": "nonpayable",
      "type": "function"
    },
    {
      "inputs": [],
      "name": "fund",
      "outputs": [],
      "stateMutability": "payable",
      "type": "function"
    },
    {
      "inputs": [],
      "name": "getBalance",
      "outputs": [
        {
          "internalType": "uint256",
          "name": "",
          "type": "uint256"
        }
      ],
      "stateMutability": "view",
      "type": "function"
    },
    {
      "inputs": [],
      "name": "manager",
      "outputs": [
        {
          "internalType": "address",
          "name": "",
          "type": "address"
        }
      ],
      "stateMutability": "view",
      "type": "function"
    },
    {
      "inputs": [],
      "name": "owner",
      "outputs": [
        {
          "internalType": "address",
          "name": "",
          "type": "address"
        }
      ],
      "stateMutability": "view",
      "type": "function"
    },
    {
      "inputs": [],
      "name": "refund",
      "outputs": [],
      "stateMutability": "nonpayable",
      "type": "function"
    },
    {
      "inputs": [],
      "name": "renounceOwnership",
      "outputs": [],
      "stateMutability": "nonpayable",
      "type": "function"
    },
    {
      "inputs": [
        {
          "internalType": "address",
          "name": "newOwner",
          "type": "address"
        }
      ],
      "name": "transferOwnership",
      "outputs": [],
      "stateMutability": "nonpayable",
      "type": "function"
    },
    {
      "inputs": [
        {
          "internalType": "uint256",
          "name": "requestNo",
          "type": "uint256"
        }
      ],
      "name": "vote",
      "outputs": [],
      "stateMutability": "nonpayable",
      "type": "function"
    }
  ],
  "bytecode": "0x608060405266071afd498d00006007553480156200001c57600080fd5b506040516200277e3803806200277e8339818101604052810190620000429190620003d9565b6200006262000056620000da60201b60201c565b620000e260201b60201c565b83600381905550824262000077919062000499565b60028190555080600160006101000a81548173ffffffffffffffffffffffffffffffffffffffff021916908373ffffffffffffffffffffffffffffffffffffffff1602179055508160059081620000cf919062000715565b5050505050620007fc565b600033905090565b60008060009054906101000a900473ffffffffffffffffffffffffffffffffffffffff169050816000806101000a81548173ffffffffffffffffffffffffffffffffffffffff021916908373ffffffffffffffffffffffffffffffffffffffff1602179055508173ffffffffffffffffffffffffffffffffffffffff168173ffffffffffffffffffffffffffffffffffffffff167f8be0079c531659141344cd1fd0a4f28419497f9722a3daafe3b4186f6b6457e060405160405180910390a35050565b6000604051905090565b600080fd5b600080fd5b6000819050919050565b620001cf81620001ba565b8114620001db57600080fd5b50565b600081519050620001ef81620001c4565b92915050565b600080fd5b600080fd5b6000601f19601f8301169050919050565b7f4e487b7100000000000000000000000000000000000000000000000000000000600052604160045260246000fd5b6200024a82620001ff565b810181811067ffffffffffffffff821117156200026c576200026b62000210565b5b80604052505050565b600062000281620001a6565b90506200028f82826200023f565b919050565b600067ffffffffffffffff821115620002b257620002b162000210565b5b620002bd82620001ff565b9050602081019050919050565b60005b83811015620002ea578082015181840152602081019050620002cd565b60008484015250505050565b60006200030d620003078462000294565b62000275565b9050828152602081018484840111156200032c576200032b620001fa565b5b62000339848285620002ca565b509392505050565b600082601f830112620003595762000358620001f5565b5b81516200036b848260208601620002f6565b91505092915050565b600073ffffffffffffffffffffffffffffffffffffffff82169050919050565b6000620003a18262000374565b9050919050565b620003b38162000394565b8114620003bf57600080fd5b50565b600081519050620003d381620003a8565b92915050565b60008060008060808587031215620003f657620003f5620001b0565b5b60006200040687828801620001de565b94505060206200041987828801620001de565b935050604085015167ffffffffffffffff8111156200043d576200043c620001b5565b5b6200044b8782880162000341565b92505060606200045e87828801620003c2565b91505092959194509250565b7f4e487b7100000000000000000000000000000000000000000000000000000000600052601160045260246000fd5b6000620004a682620001ba565b9150620004b383620001ba565b9250828201905080821115620004ce57620004cd6200046a565b5b92915050565b600081519050919050565b7f4e487b7100000000000000000000000000000000000000000000000000000000600052602260045260246000fd5b600060028204905060018216806200052757607f821691505b6020821081036200053d576200053c620004df565b5b50919050565b60008190508160005260206000209050919050565b60006020601f8301049050919050565b600082821b905092915050565b600060088302620005a77fffffffffffffffffffffffffffffffffffffffffffffffffffffffffffffffff8262000568565b620005b3868362000568565b95508019841693508086168417925050509392505050565b6000819050919050565b6000620005f6620005f0620005ea84620001ba565b620005cb565b620001ba565b9050919050565b6000819050919050565b6200061283620005d5565b6200062a6200062182620005fd565b84845462000575565b825550505050565b600090565b6200064162000632565b6200064e81848462000607565b505050565b5b8181101562000676576200066a60008262000637565b60018101905062000654565b5050565b601f821115620006c5576200068f8162000543565b6200069a8462000558565b81016020851015620006aa578190505b620006c2620006b98562000558565b83018262000653565b50505b505050565b600082821c905092915050565b6000620006ea60001984600802620006ca565b1980831691505092915050565b6000620007058383620006d7565b9150826002028217905092915050565b6200072082620004d4565b67ffffffffffffffff8111156200073c576200073b62000210565b5b6200074882546200050e565b620007558282856200067a565b600060209050601f8311600181146200078d576000841562000778578287015190505b620007848582620006f7565b865550620007f4565b601f1984166200079d8662000543565b60005b82811015620007c757848901518255600182019150602085019450602081019050620007a0565b86831015620007e75784890151620007e3601f891682620006d7565b8355505b6001600288020188555050505b505050505050565b611f72806200080c6000396000f3fe6080604052600436106100915760003560e01c8063715018a611610059578063715018a6146101555780638da5cb5b1461016c578063b60d428814610197578063ba9a7a9e146101a1578063f2fde38b146101bd57610091565b80630121b93f1461009657806303441006146100bf57806312065fe0146100e8578063481c6a7514610113578063590e1ae31461013e575b600080fd5b3480156100a257600080fd5b506100bd60048036038101906100b89190610f1a565b6101e6565b005b3480156100cb57600080fd5b506100e660048036038101906100e19190610f1a565b610416565b005b3480156100f457600080fd5b506100fd610746565b60405161010a9190610f56565b60405180910390f35b34801561011f57600080fd5b5061012861074e565b6040516101359190610fb2565b60405180910390f35b34801561014a57600080fd5b50610153610774565b005b34801561016157600080fd5b5061016a6109d7565b005b34801561017857600080fd5b506101816109eb565b60405161018e9190610fb2565b60405180910390f35b61019f610a14565b005b6101bb60048036038101906101b69190611151565b610b55565b005b3480156101c957600080fd5b506101e460048036038101906101df91906111ec565b610cdf565b005b6101f0600a610d62565b8110610231576040517f08c379a000000000000000000000000000000000000000000000000000000000815260040161022890611276565b60405180910390fd5b6000600860003373ffffffffffffffffffffffffffffffffffffffff1673ffffffffffffffffffffffffffffffffffffffff16815260200190815260200160002054116102b3576040517f08c379a00000000000000000000000000000000000000000000000000000000081526004016102aa90611308565b60405180910390fd5b6000600960008381526020019081526020016000209050600015158160050160003373ffffffffffffffffffffffffffffffffffffffff1673ffffffffffffffffffffffffffffffffffffffff16815260200190815260200160002060009054906101000a900460ff1615151461035f576040517f08c379a000000000000000000000000000000000000000000000000000000000815260040161035690611374565b60405180910390fd5b60018160050160003373ffffffffffffffffffffffffffffffffffffffff1673ffffffffffffffffffffffffffffffffffffffff16815260200190815260200160002060006101000a81548160ff0219169083151502179055508060040160008154809291906103ce906113c3565b91905055507fb091fe3ff5bcc354914ab49469d6febeeec7ad0134e4f94bb8c834da0c391c9f3382600401544260405161040a9392919061140b565b60405180910390a15050565b600160009054906101000a900473ffffffffffffffffffffffffffffffffffffffff1673ffffffffffffffffffffffffffffffffffffffff163373ffffffffffffffffffffffffffffffffffffffff16146104a6576040517f08c379a000000000000000000000000000000000000000000000000000000000815260040161049d906114b4565b60405180910390fd5b60035460045410156104ed576040517f08c379a00000000000000000000000000000000000000000000000000000000081526004016104e490611546565b60405180910390fd5b6104f7600a610d62565b8110610538576040517f08c379a000000000000000000000000000000000000000000000000000000000815260040161052f90611276565b60405180910390fd5b600060096000838152602001908152602001600020905060008160020154905060008260010160009054906101000a900473ffffffffffffffffffffffffffffffffffffffff1690506000836004015490508360030160009054906101000a900460ff166105db576040517f08c379a00000000000000000000000000000000000000000000000000000000081526004016105d2906115b2565b60405180910390fd5b60026105e76006610d62565b6105f19190611601565b8111610632576040517f08c379a0000000000000000000000000000000000000000000000000000000008152600401610629906116a4565b60405180910390fd5b6000808373ffffffffffffffffffffffffffffffffffffffff1660045460405161065b906116f5565b60006040518083038185875af1925050503d8060008114610698576040519150601f19603f3d011682016040523d82523d6000602084013e61069d565b606091505b5091509150816106e2576040517f08c379a00000000000000000000000000000000000000000000000000000000081526004016106d990611756565b60405180910390fd5b60018660030160006101000a81548160ff0219169083151502179055507ffb37936a7aac866128e9c303930929ecdd2f98e3c0af8a089bfe7812752cddbc600186868660405161073594939291906117f0565b60405180910390a150505050505050565b600047905090565b600160009054906101000a900473ffffffffffffffffffffffffffffffffffffffff1681565b60025442116107b8576040517f08c379a00000000000000000000000000000000000000000000000000000000081526004016107af90611881565b60405180910390fd5b600354600454106107fe576040517f08c379a00000000000000000000000000000000000000000000000000000000081526004016107f590611913565b60405180910390fd5b6000600860003373ffffffffffffffffffffffffffffffffffffffff1673ffffffffffffffffffffffffffffffffffffffff16815260200190815260200160002054905060008103610885576040517f08c379a000000000000000000000000000000000000000000000000000000000815260040161087c9061197f565b60405180910390fd5b60003390506000808273ffffffffffffffffffffffffffffffffffffffff16846040516108b1906116f5565b60006040518083038185875af1925050503d80600081146108ee576040519150601f19603f3d011682016040523d82523d6000602084013e6108f3565b606091505b509150915081610938576040517f08c379a000000000000000000000000000000000000000000000000000000000815260040161092f906119eb565b60405180910390fd5b6000600860003373ffffffffffffffffffffffffffffffffffffffff1673ffffffffffffffffffffffffffffffffffffffff16815260200190815260200160002081905550836004600082825461098f9190611a0b565b925050819055507f7de468ad197c4fe7792a8ba2667fa5f300f4ff197b247809680a549b7c1be67e3385426040516109c99392919061140b565b60405180910390a150505050565b6109df610d70565b6109e96000610dee565b565b60008060009054906101000a900473ffffffffffffffffffffffffffffffffffffffff16905090565b6002544210610a58576040517f08c379a0000000000000000000000000000000000000000000000000000000008152600401610a4f90611a8b565b60405180910390fd5b6000600860003373ffffffffffffffffffffffffffffffffffffffff1673ffffffffffffffffffffffffffffffffffffffff1681526020019081526020016000205403610aaa57610aa96006610eb2565b5b34600860003373ffffffffffffffffffffffffffffffffffffffff1673ffffffffffffffffffffffffffffffffffffffff1681526020019081526020016000206000828254610af99190611aab565b925050819055503460046000828254610b129190611aab565b925050819055507e70cd81276c355f748296dd0c89eac73e3e7a10c8c7997771e56e8e6cafceed333442604051610b4b9392919061140b565b60405180910390a1565b600160009054906101000a900473ffffffffffffffffffffffffffffffffffffffff1673ffffffffffffffffffffffffffffffffffffffff163373ffffffffffffffffffffffffffffffffffffffff1614610be5576040517f08c379a0000000000000000000000000000000000000000000000000000000008152600401610bdc906114b4565b60405180910390fd5b6000610bf1600a610d62565b9050610bfd600a610eb2565b6000600960008381526020019081526020016000209050848160010160006101000a81548173ffffffffffffffffffffffffffffffffffffffff021916908373ffffffffffffffffffffffffffffffffffffffff16021790555083816002018190555060008160030160006101000a81548160ff0219169083151502179055506000816004018190555082816000019081610c989190611cec565b507fe351cd3bc43476a26f7c5a1657c2abb6ccd4bc697520e01cf395639db1ba37c0600085876000604051610cd09493929190611df9565b60405180910390a15050505050565b610ce7610d70565b600073ffffffffffffffffffffffffffffffffffffffff168173ffffffffffffffffffffffffffffffffffffffff1603610d56576040517f08c379a0000000000000000000000000000000000000000000000000000000008152600401610d4d90611eb0565b60405180910390fd5b610d5f81610dee565b50565b600081600001549050919050565b610d78610ec8565b73ffffffffffffffffffffffffffffffffffffffff16610d966109eb565b73ffffffffffffffffffffffffffffffffffffffff1614610dec576040517f08c379a0000000000000000000000000000000000000000000000000000000008152600401610de390611f1c565b60405180910390fd5b565b60008060009054906101000a900473ffffffffffffffffffffffffffffffffffffffff169050816000806101000a81548173ffffffffffffffffffffffffffffffffffffffff021916908373ffffffffffffffffffffffffffffffffffffffff1602179055508173ffffffffffffffffffffffffffffffffffffffff168173ffffffffffffffffffffffffffffffffffffffff167f8be0079c531659141344cd1fd0a4f28419497f9722a3daafe3b4186f6b6457e060405160405180910390a35050565b6001816000016000828254019250508190555050565b600033905090565b6000604051905090565b600080fd5b600080fd5b6000819050919050565b610ef781610ee4565b8114610f0257600080fd5b50565b600081359050610f1481610eee565b92915050565b600060208284031215610f3057610f2f610eda565b5b6000610f3e84828501610f05565b91505092915050565b610f5081610ee4565b82525050565b6000602082019050610f6b6000830184610f47565b92915050565b600073ffffffffffffffffffffffffffffffffffffffff82169050919050565b6000610f9c82610f71565b9050919050565b610fac81610f91565b82525050565b6000602082019050610fc76000830184610fa3565b92915050565b6000610fd882610f71565b9050919050565b610fe881610fcd565b8114610ff357600080fd5b50565b60008135905061100581610fdf565b92915050565b600080fd5b600080fd5b6000601f19601f8301169050919050565b7f4e487b7100000000000000000000000000000000000000000000000000000000600052604160045260246000fd5b61105e82611015565b810181811067ffffffffffffffff8211171561107d5761107c611026565b5b80604052505050565b6000611090610ed0565b905061109c8282611055565b919050565b600067ffffffffffffffff8211156110bc576110bb611026565b5b6110c582611015565b9050602081019050919050565b82818337600083830152505050565b60006110f46110ef846110a1565b611086565b9050828152602081018484840111156111105761110f611010565b5b61111b8482856110d2565b509392505050565b600082601f8301126111385761113761100b565b5b81356111488482602086016110e1565b91505092915050565b60008060006060848603121561116a57611169610eda565b5b600061117886828701610ff6565b935050602061118986828701610f05565b925050604084013567ffffffffffffffff8111156111aa576111a9610edf565b5b6111b686828701611123565b9150509250925092565b6111c981610f91565b81146111d457600080fd5b50565b6000813590506111e6816111c0565b92915050565b60006020828403121561120257611201610eda565b5b6000611210848285016111d7565b91505092915050565b600082825260208201905092915050565b7f52657175657374206e756d626572206973206e6f742076616c69642121000000600082015250565b6000611260601d83611219565b915061126b8261122a565b602082019050919050565b6000602082019050818103600083015261128f81611253565b9050919050565b7f596f7520617265206e6f7420636f6e7472696275746f7220706c65617365206360008201527f6f6e747269627574652066697273742100000000000000000000000000000000602082015250565b60006112f2603083611219565b91506112fd82611296565b604082019050919050565b60006020820190508181036000830152611321816112e5565b9050919050565b7f596f75206861766520616c726561647920766f74656421210000000000000000600082015250565b600061135e601883611219565b915061136982611328565b602082019050919050565b6000602082019050818103600083015261138d81611351565b9050919050565b7f4e487b7100000000000000000000000000000000000000000000000000000000600052601160045260246000fd5b60006113ce82610ee4565b91507fffffffffffffffffffffffffffffffffffffffffffffffffffffffffffffffff8203611400576113ff611394565b5b600182019050919050565b60006060820190506114206000830186610fa3565b61142d6020830185610f47565b61143a6040830184610f47565b949350505050565b7f596f7520617265206e6f74206d616e61676572206f6620746869732063616d7060008201527f6169676e21000000000000000000000000000000000000000000000000000000602082015250565b600061149e602583611219565b91506114a982611442565b604082019050919050565b600060208201905081810360008301526114cd81611491565b9050919050565b7f54617267657420616d6f756e7420686173206e6f74206265656e20726561636860008201527f6564207965742100000000000000000000000000000000000000000000000000602082015250565b6000611530602783611219565b915061153b826114d4565b604082019050919050565b6000602082019050818103600083015261155f81611523565b9050919050565b7f5265717565737420697320616c726561647920636f6d706c6574656421000000600082015250565b600061159c601d83611219565b91506115a782611566565b602082019050919050565b600060208201905081810360008301526115cb8161158f565b9050919050565b7f4e487b7100000000000000000000000000000000000000000000000000000000600052601260045260246000fd5b600061160c82610ee4565b915061161783610ee4565b925082611627576116266115d2565b5b828204905092915050565b7f4d616a6f7269747920766f74657320686173206e6f74206265656e207265616360008201527f6865642100000000000000000000000000000000000000000000000000000000602082015250565b600061168e602483611219565b915061169982611632565b604082019050919050565b600060208201905081810360008301526116bd81611681565b9050919050565b600081905092915050565b50565b60006116df6000836116c4565b91506116ea826116cf565b600082019050919050565b6000611700826116d2565b9150819050919050565b7f4661696c656420746f207472616e736665722065746865722121000000000000600082015250565b6000611740601a83611219565b915061174b8261170a565b602082019050919050565b6000602082019050818103600083015261176f81611733565b9050919050565b60008115159050919050565b61178b81611776565b82525050565b6000819050919050565b60006117b66117b16117ac84610f71565b611791565b610f71565b9050919050565b60006117c88261179b565b9050919050565b60006117da826117bd565b9050919050565b6117ea816117cf565b82525050565b60006080820190506118056000830187611782565b6118126020830186610f47565b61181f60408301856117e1565b61182c6060830184610f47565b95945050505050565b7f446561646c696e6520686173206e6f7420726561636865642079657421000000600082015250565b600061186b601d83611219565b915061187682611835565b602082019050919050565b6000602082019050818103600083015261189a8161185e565b9050919050565b7f52616973656420616d6f756e7420686173207265616368656420746f2074617260008201527f6765742100000000000000000000000000000000000000000000000000000000602082015250565b60006118fd602483611219565b9150611908826118a1565b604082019050919050565b6000602082019050818103600083015261192c816118f0565b9050919050565b7f596f752068617665206e6f742066756e64656420616e7920616d6f756e742121600082015250565b6000611969602083611219565b915061197482611933565b602082019050919050565b600060208201905081810360008301526119988161195c565b9050919050565b7f4661696c656420746f20726566756e6421000000000000000000000000000000600082015250565b60006119d5601183611219565b91506119e08261199f565b602082019050919050565b60006020820190508181036000830152611a04816119c8565b9050919050565b6000611a1682610ee4565b9150611a2183610ee4565b9250828203905081811115611a3957611a38611394565b5b92915050565b7f446561646c696e65206861732070617373656421000000000000000000000000600082015250565b6000611a75601483611219565b9150611a8082611a3f565b602082019050919050565b60006020820190508181036000830152611aa481611a68565b9050919050565b6000611ab682610ee4565b9150611ac183610ee4565b9250828201905080821115611ad957611ad8611394565b5b92915050565b600081519050919050565b7f4e487b7100000000000000000000000000000000000000000000000000000000600052602260045260246000fd5b60006002820490506001821680611b3157607f821691505b602082108103611b4457611b43611aea565b5b50919050565b60008190508160005260206000209050919050565b60006020601f8301049050919050565b600082821b905092915050565b600060088302611bac7fffffffffffffffffffffffffffffffffffffffffffffffffffffffffffffffff82611b6f565b611bb68683611b6f565b95508019841693508086168417925050509392505050565b6000611be9611be4611bdf84610ee4565b611791565b610ee4565b9050919050565b6000819050919050565b611c0383611bce565b611c17611c0f82611bf0565b848454611b7c565b825550505050565b600090565b611c2c611c1f565b611c37818484611bfa565b505050565b5b81811015611c5b57611c50600082611c24565b600181019050611c3d565b5050565b601f821115611ca057611c7181611b4a565b611c7a84611b5f565b81016020851015611c89578190505b611c9d611c9585611b5f565b830182611c3c565b50505b505050565b600082821c905092915050565b6000611cc360001984600802611ca5565b1980831691505092915050565b6000611cdc8383611cb2565b9150826002028217905092915050565b611cf582611adf565b67ffffffffffffffff811115611d0e57611d0d611026565b5b611d188254611b19565b611d23828285611c5f565b600060209050601f831160018114611d565760008415611d44578287015190505b611d4e8582611cd0565b865550611db6565b601f198416611d6486611b4a565b60005b82811015611d8c57848901518255600182019150602085019450602081019050611d67565b86831015611da95784890151611da5601f891682611cb2565b8355505b6001600288020188555050505b505050505050565b6000819050919050565b6000611de3611dde611dd984611dbe565b611791565b610ee4565b9050919050565b611df381611dc8565b82525050565b6000608082019050611e0e6000830187611782565b611e1b6020830186610f47565b611e2860408301856117e1565b611e356060830184611dea565b95945050505050565b7f4f776e61626c653a206e6577206f776e657220697320746865207a65726f206160008201527f6464726573730000000000000000000000000000000000000000000000000000602082015250565b6000611e9a602683611219565b9150611ea582611e3e565b604082019050919050565b60006020820190508181036000830152611ec981611e8d565b9050919050565b7f4f776e61626c653a2063616c6c6572206973206e6f7420746865206f776e6572600082015250565b6000611f06602083611219565b9150611f1182611ed0565b602082019050919050565b60006020820190508181036000830152611f3581611ef9565b905091905056fea264697066735822122041c7a775f037c8f66895b4ebff463d8620090dbbaed4e671f4cebcf3021ea77e64736f6c63430008110033",
  "linkReferences": {},
  "deployedLinkReferences": {}
}