{
  "_format": "hh-sol-artifact-1",
  "contractName": "Campaign",
  "sourceName": "contracts/Campaign.sol",
  "abi": [
    {
      "inputs": [
        {
          "internalType": "uint256",
          "name": "_target",
          "type": "uint256"
        },
        {
          "internalType": "uint256",
          "name": "_startAt",
          "type": "uint256"
        },
        {
          "internalType": "uint256",
          "name": "_endAt",
          "type": "uint256"
        },
        {
          "internalType": "string",
          "name": "_dataURI",
          "type": "string"
        },
        {
          "internalType": "address",
          "name": "_manager",
          "type": "address"
        }
      ],
      "stateMutability": "nonpayable",
      "type": "constructor"
    },
    {
      "anonymous": false,
      "inputs": [
        {
          "indexed": true,
          "internalType": "address",
          "name": "previousOwner",
          "type": "address"
        },
        {
          "indexed": true,
          "internalType": "address",
          "name": "newOwner",
          "type": "address"
        }
      ],
      "name": "OwnershipTransferred",
      "type": "event"
    },
    {
      "anonymous": false,
      "inputs": [
        {
          "indexed": false,
          "internalType": "bool",
          "name": "isCompleted",
          "type": "bool"
        },
        {
          "indexed": false,
          "internalType": "uint256",
          "name": "value",
          "type": "uint256"
        },
        {
          "indexed": false,
          "internalType": "address",
          "name": "recipient",
          "type": "address"
        },
        {
          "indexed": false,
          "internalType": "uint256",
          "name": "noOfVoters",
          "type": "uint256"
        }
      ],
      "name": "finalized",
      "type": "event"
    },
    {
      "anonymous": false,
      "inputs": [
        {
          "indexed": false,
          "internalType": "address",
          "name": "funder",
          "type": "address"
        },
        {
          "indexed": false,
          "internalType": "uint256",
          "name": "amount",
          "type": "uint256"
        },
        {
          "indexed": false,
          "internalType": "uint256",
          "name": "timestamp",
          "type": "uint256"
        }
      ],
      "name": "funded",
      "type": "event"
    },
    {
      "anonymous": false,
      "inputs": [
        {
          "indexed": false,
          "internalType": "address",
          "name": "funder",
          "type": "address"
        },
        {
          "indexed": false,
          "internalType": "uint256",
          "name": "amount",
          "type": "uint256"
        },
        {
          "indexed": false,
          "internalType": "uint256",
          "name": "timestamp",
          "type": "uint256"
        }
      ],
      "name": "reFunded",
      "type": "event"
    },
    {
      "anonymous": false,
      "inputs": [
        {
          "indexed": false,
          "internalType": "bool",
          "name": "isCompleted",
          "type": "bool"
        },
        {
          "indexed": false,
          "internalType": "uint256",
          "name": "value",
          "type": "uint256"
        },
        {
          "indexed": false,
          "internalType": "address",
          "name": "recipient",
          "type": "address"
        },
        {
          "indexed": false,
          "internalType": "uint256",
          "name": "noOfVoters",
          "type": "uint256"
        },
        {
          "indexed": false,
          "internalType": "uint256",
          "name": "index",
          "type": "uint256"
        },
        {
          "indexed": false,
          "internalType": "string",
          "name": "dataURI",
          "type": "string"
        }
      ],
      "name": "requested",
      "type": "event"
    },
    {
      "anonymous": false,
      "inputs": [
        {
          "indexed": false,
          "internalType": "address",
          "name": "voter",
          "type": "address"
        },
        {
          "indexed": false,
          "internalType": "uint256",
          "name": "noOfVotes",
          "type": "uint256"
        },
        {
          "indexed": false,
          "internalType": "uint256",
          "name": "timestamp",
          "type": "uint256"
        }
      ],
      "name": "voted",
      "type": "event"
    },
    {
      "inputs": [
        {
          "internalType": "address payable",
          "name": "_recipient",
          "type": "address"
        },
        {
          "internalType": "uint256",
          "name": "_value",
          "type": "uint256"
        },
        {
          "internalType": "string",
          "name": "_dataURI",
          "type": "string"
        }
      ],
      "name": "createRequest",
      "outputs": [],
      "stateMutability": "payable",
      "type": "function"
    },
    {
      "inputs": [
        {
          "internalType": "uint256",
          "name": "requestNo",
          "type": "uint256"
        }
      ],
      "name": "finalizeRequest",
      "outputs": [],
      "stateMutability": "nonpayable",
      "type": "function"
    },
    {
      "inputs": [],
      "name": "fund",
      "outputs": [],
      "stateMutability": "payable",
      "type": "function"
    },
    {
      "inputs": [],
      "name": "getAllContributors",
      "outputs": [
        {
          "components": [
            {
              "internalType": "address",
              "name": "contributor",
              "type": "address"
            },
            {
              "internalType": "uint256",
              "name": "amount",
              "type": "uint256"
            }
          ],
          "internalType": "struct Campaign.Contributor[]",
          "name": "",
          "type": "tuple[]"
        }
      ],
      "stateMutability": "view",
      "type": "function"
    },
    {
      "inputs": [],
      "name": "getBalance",
      "outputs": [
        {
          "internalType": "uint256",
          "name": "",
          "type": "uint256"
        }
      ],
      "stateMutability": "view",
      "type": "function"
    },
    {
      "inputs": [],
      "name": "getInfo",
      "outputs": [
        {
          "internalType": "address",
          "name": "",
          "type": "address"
        },
        {
          "internalType": "uint256",
          "name": "",
          "type": "uint256"
        },
        {
          "internalType": "uint256",
          "name": "",
          "type": "uint256"
        },
        {
          "internalType": "uint256",
          "name": "",
          "type": "uint256"
        },
        {
          "internalType": "uint256",
          "name": "",
          "type": "uint256"
        },
        {
          "internalType": "string",
          "name": "",
          "type": "string"
        },
        {
          "internalType": "uint256",
          "name": "",
          "type": "uint256"
        },
        {
          "internalType": "uint256",
          "name": "",
          "type": "uint256"
        }
      ],
      "stateMutability": "view",
      "type": "function"
    },
    {
      "inputs": [
        {
          "internalType": "address",
          "name": "_contributor",
          "type": "address"
        },
        {
          "internalType": "uint256",
          "name": "index",
          "type": "uint256"
        }
      ],
      "name": "isAproover",
      "outputs": [
        {
          "internalType": "bool",
          "name": "",
          "type": "bool"
        }
      ],
      "stateMutability": "view",
      "type": "function"
    },
    {
      "inputs": [
        {
          "internalType": "address",
          "name": "_contributor",
          "type": "address"
        }
      ],
      "name": "isContributor",
      "outputs": [
        {
          "internalType": "bool",
          "name": "",
          "type": "bool"
        }
      ],
      "stateMutability": "view",
      "type": "function"
    },
    {
      "inputs": [],
      "name": "manager",
      "outputs": [
        {
          "internalType": "address",
          "name": "",
          "type": "address"
        }
      ],
      "stateMutability": "view",
      "type": "function"
    },
    {
      "inputs": [],
      "name": "minContribution",
      "outputs": [
        {
          "internalType": "uint256",
          "name": "",
          "type": "uint256"
        }
      ],
      "stateMutability": "view",
      "type": "function"
    },
    {
      "inputs": [],
      "name": "owner",
      "outputs": [
        {
          "internalType": "address",
          "name": "",
          "type": "address"
        }
      ],
      "stateMutability": "view",
      "type": "function"
    },
    {
      "inputs": [],
      "name": "refund",
      "outputs": [],
      "stateMutability": "nonpayable",
      "type": "function"
    },
    {
      "inputs": [],
      "name": "renounceOwnership",
      "outputs": [],
      "stateMutability": "nonpayable",
      "type": "function"
    },
    {
      "inputs": [
        {
          "internalType": "uint256",
          "name": "_minContribution",
          "type": "uint256"
        }
      ],
      "name": "setMinContribution",
      "outputs": [],
      "stateMutability": "nonpayable",
      "type": "function"
    },
    {
      "inputs": [
        {
          "internalType": "address",
          "name": "newOwner",
          "type": "address"
        }
      ],
      "name": "transferOwnership",
      "outputs": [],
      "stateMutability": "nonpayable",
      "type": "function"
    },
    {
      "inputs": [
        {
          "internalType": "uint256",
          "name": "requestNo",
          "type": "uint256"
        }
      ],
      "name": "vote",
      "outputs": [],
      "stateMutability": "nonpayable",
      "type": "function"
    }
  ],
  "bytecode": "0x608060405266071afd498d00006008553480156200001c57600080fd5b5060405162003505380380620035058339818101604052810190620000429190620003d4565b6200006262000056620000d560201b60201c565b620000dd60201b60201c565b84600481905550836002819055508260038190555080600160006101000a81548173ffffffffffffffffffffffffffffffffffffffff021916908373ffffffffffffffffffffffffffffffffffffffff1602179055508160069081620000c99190620006bc565b505050505050620007a3565b600033905090565b60008060009054906101000a900473ffffffffffffffffffffffffffffffffffffffff169050816000806101000a81548173ffffffffffffffffffffffffffffffffffffffff021916908373ffffffffffffffffffffffffffffffffffffffff1602179055508173ffffffffffffffffffffffffffffffffffffffff168173ffffffffffffffffffffffffffffffffffffffff167f8be0079c531659141344cd1fd0a4f28419497f9722a3daafe3b4186f6b6457e060405160405180910390a35050565b6000604051905090565b600080fd5b600080fd5b6000819050919050565b620001ca81620001b5565b8114620001d657600080fd5b50565b600081519050620001ea81620001bf565b92915050565b600080fd5b600080fd5b6000601f19601f8301169050919050565b7f4e487b7100000000000000000000000000000000000000000000000000000000600052604160045260246000fd5b6200024582620001fa565b810181811067ffffffffffffffff821117156200026757620002666200020b565b5b80604052505050565b60006200027c620001a1565b90506200028a82826200023a565b919050565b600067ffffffffffffffff821115620002ad57620002ac6200020b565b5b620002b882620001fa565b9050602081019050919050565b60005b83811015620002e5578082015181840152602081019050620002c8565b60008484015250505050565b60006200030862000302846200028f565b62000270565b905082815260208101848484011115620003275762000326620001f5565b5b62000334848285620002c5565b509392505050565b600082601f830112620003545762000353620001f0565b5b815162000366848260208601620002f1565b91505092915050565b600073ffffffffffffffffffffffffffffffffffffffff82169050919050565b60006200039c826200036f565b9050919050565b620003ae816200038f565b8114620003ba57600080fd5b50565b600081519050620003ce81620003a3565b92915050565b600080600080600060a08688031215620003f357620003f2620001ab565b5b60006200040388828901620001d9565b95505060206200041688828901620001d9565b94505060406200042988828901620001d9565b935050606086015167ffffffffffffffff8111156200044d576200044c620001b0565b5b6200045b888289016200033c565b92505060806200046e88828901620003bd565b9150509295509295909350565b600081519050919050565b7f4e487b7100000000000000000000000000000000000000000000000000000000600052602260045260246000fd5b60006002820490506001821680620004ce57607f821691505b602082108103620004e457620004e362000486565b5b50919050565b60008190508160005260206000209050919050565b60006020601f8301049050919050565b600082821b905092915050565b6000600883026200054e7fffffffffffffffffffffffffffffffffffffffffffffffffffffffffffffffff826200050f565b6200055a86836200050f565b95508019841693508086168417925050509392505050565b6000819050919050565b60006200059d620005976200059184620001b5565b62000572565b620001b5565b9050919050565b6000819050919050565b620005b9836200057c565b620005d1620005c882620005a4565b8484546200051c565b825550505050565b600090565b620005e8620005d9565b620005f5818484620005ae565b505050565b5b818110156200061d5762000611600082620005de565b600181019050620005fb565b5050565b601f8211156200066c576200063681620004ea565b6200064184620004ff565b8101602085101562000651578190505b620006696200066085620004ff565b830182620005fa565b50505b505050565b600082821c905092915050565b6000620006916000198460080262000671565b1980831691505092915050565b6000620006ac83836200067e565b9150826002028217905092915050565b620006c7826200047b565b67ffffffffffffffff811115620006e357620006e26200020b565b5b620006ef8254620004b5565b620006fc82828562000621565b600060209050601f8311600181146200073457600084156200071f578287015190505b6200072b85826200069e565b8655506200079b565b601f1984166200074486620004ea565b60005b828110156200076e5784890151825560018201915060208501945060208101905062000747565b868310156200078e57848901516200078a601f8916826200067e565b8355505b6001600288020188555050505b505050505050565b612d5280620007b36000396000f3fe6080604052600436106100f35760003560e01c8063590e1ae31161008a578063aaffadf311610059578063aaffadf3146102f9578063b60d428814610324578063ba9a7a9e1461032e578063f2fde38b1461034a576100f3565b8063590e1ae31461026e5780635a9b0b8914610285578063715018a6146102b75780638da5cb5b146102ce576100f3565b80631d0d35f5116100c65780631d0d35f5146101b2578063473b0d46146101ef578063481c6a751461021857806351f890ea14610243576100f3565b80630121b93f146100f8578063034410061461012157806312065fe01461014a5780631cf680e014610175575b600080fd5b34801561010457600080fd5b5061011f600480360381019061011a919061176d565b610373565b005b34801561012d57600080fd5b506101486004803603810190610143919061176d565b6105a3565b005b34801561015657600080fd5b5061015f6108d8565b60405161016c91906117a9565b60405180910390f35b34801561018157600080fd5b5061019c60048036038101906101979190611822565b6108e0565b6040516101a9919061187d565b60405180910390f35b3480156101be57600080fd5b506101d960048036038101906101d49190611898565b610a1d565b6040516101e6919061187d565b60405180910390f35b3480156101fb57600080fd5b506102166004803603810190610211919061176d565b610aea565b005b34801561022457600080fd5b5061022d610b37565b60405161023a91906118d4565b60405180910390f35b34801561024f57600080fd5b50610258610b5d565b60405161026591906119eb565b60405180910390f35b34801561027a57600080fd5b50610283610d21565b005b34801561029157600080fd5b5061029a610f81565b6040516102ae989796959493929190611a9d565b60405180910390f35b3480156102c357600080fd5b506102cc611072565b005b3480156102da57600080fd5b506102e3611086565b6040516102f091906118d4565b60405180910390f35b34801561030557600080fd5b5061030e6110af565b60405161031b91906117a9565b60405180910390f35b61032c6110b5565b005b61034860048036038101906103439190611c95565b611265565b005b34801561035657600080fd5b50610371600480360381019061036c9190611898565b6113f3565b005b61037d600c611476565b81106103be576040517f08c379a00000000000000000000000000000000000000000000000000000000081526004016103b590611d50565b60405180910390fd5b6000600960003373ffffffffffffffffffffffffffffffffffffffff1673ffffffffffffffffffffffffffffffffffffffff1681526020019081526020016000205411610440576040517f08c379a000000000000000000000000000000000000000000000000000000000815260040161043790611de2565b60405180910390fd5b6000600b60008381526020019081526020016000209050600015158160050160003373ffffffffffffffffffffffffffffffffffffffff1673ffffffffffffffffffffffffffffffffffffffff16815260200190815260200160002060009054906101000a900460ff161515146104ec576040517f08c379a00000000000000000000000000000000000000000000000000000000081526004016104e390611e4e565b60405180910390fd5b60018160050160003373ffffffffffffffffffffffffffffffffffffffff1673ffffffffffffffffffffffffffffffffffffffff16815260200190815260200160002060006101000a81548160ff02191690831515021790555080600401600081548092919061055b90611e9d565b91905055507fb091fe3ff5bcc354914ab49469d6febeeec7ad0134e4f94bb8c834da0c391c9f3382600401544260405161059793929190611ee5565b60405180910390a15050565b600160009054906101000a900473ffffffffffffffffffffffffffffffffffffffff1673ffffffffffffffffffffffffffffffffffffffff163373ffffffffffffffffffffffffffffffffffffffff1614610633576040517f08c379a000000000000000000000000000000000000000000000000000000000815260040161062a90611f8e565b60405180910390fd5b600454600554101561067a576040517f08c379a000000000000000000000000000000000000000000000000000000000815260040161067190612020565b60405180910390fd5b610684600c611476565b81106106c5576040517f08c379a00000000000000000000000000000000000000000000000000000000081526004016106bc90611d50565b60405180910390fd5b6000600b6000838152602001908152602001600020905060008160020154905060008260010160009054906101000a900473ffffffffffffffffffffffffffffffffffffffff169050600083600401549050600015158460030160009054906101000a900460ff1615151461076f576040517f08c379a00000000000000000000000000000000000000000000000000000000081526004016107669061208c565b60405180910390fd5b600261077b6007611476565b61078591906120db565b8110156107c7576040517f08c379a00000000000000000000000000000000000000000000000000000000081526004016107be9061217e565b60405180910390fd5b60008273ffffffffffffffffffffffffffffffffffffffff166005546040516107ef906121cf565b60006040518083038185875af1925050503d806000811461082c576040519150601f19603f3d011682016040523d82523d6000602084013e610831565b606091505b5050905080610875576040517f08c379a000000000000000000000000000000000000000000000000000000000815260040161086c90612230565b60405180910390fd5b60018560030160006101000a81548160ff0219169083151502179055507ffb37936a7aac866128e9c303930929ecdd2f98e3c0af8a089bfe7812752cddbc60018585856040516108c894939291906122af565b60405180910390a1505050505050565b600047905090565b600080600960008573ffffffffffffffffffffffffffffffffffffffff1673ffffffffffffffffffffffffffffffffffffffff1681526020019081526020016000205411610963576040517f08c379a000000000000000000000000000000000000000000000000000000000815260040161095a9061238c565b60405180910390fd5b61096d600c611476565b82106109ae576040517f08c379a00000000000000000000000000000000000000000000000000000000081526004016109a5906123f8565b60405180910390fd5b6000600b600084815260200190815260200160002090508060050160008573ffffffffffffffffffffffffffffffffffffffff1673ffffffffffffffffffffffffffffffffffffffff16815260200190815260200160002060009054906101000a900460ff1691505092915050565b600080600960008473ffffffffffffffffffffffffffffffffffffffff1673ffffffffffffffffffffffffffffffffffffffff1681526020019081526020016000205411610aa0576040517f08c379a0000000000000000000000000000000000000000000000000000000008152600401610a979061248a565b60405180910390fd5b6000600960008473ffffffffffffffffffffffffffffffffffffffff1673ffffffffffffffffffffffffffffffffffffffff16815260200190815260200160002054119050919050565b60008111610b2d576040517f08c379a0000000000000000000000000000000000000000000000000000000008152600401610b249061251c565b60405180910390fd5b8060088190555050565b600160009054906101000a900473ffffffffffffffffffffffffffffffffffffffff1681565b60606000610b6b6007611476565b67ffffffffffffffff811115610b8457610b83611b6a565b5b604051908082528060200260200182016040528015610bbd57816020015b610baa6116f3565b815260200190600190039081610ba25790505b5090506000600a805480602002602001604051908101604052809291908181526020018280548015610c4457602002820191906000526020600020905b8160009054906101000a900473ffffffffffffffffffffffffffffffffffffffff1673ffffffffffffffffffffffffffffffffffffffff1681526020019060010190808311610bfa575b5050505050905060005b8151811015610d18576000828281518110610c6c57610c6b61253c565b5b602002602001015190506000600960008373ffffffffffffffffffffffffffffffffffffffff1673ffffffffffffffffffffffffffffffffffffffff16815260200190815260200160002054905060405180604001604052808373ffffffffffffffffffffffffffffffffffffffff16815260200182815250858481518110610cf857610cf761253c565b5b602002602001018190525050508080610d1090611e9d565b915050610c4e565b50819250505090565b4260035410610d65576040517f08c379a0000000000000000000000000000000000000000000000000000000008152600401610d5c906125b7565b60405180910390fd5b60045460055410610dab576040517f08c379a0000000000000000000000000000000000000000000000000000000008152600401610da290612649565b60405180910390fd5b6000600960003373ffffffffffffffffffffffffffffffffffffffff1673ffffffffffffffffffffffffffffffffffffffff16815260200190815260200160002054905060008103610e32576040517f08c379a0000000000000000000000000000000000000000000000000000000008152600401610e29906126b5565b60405180910390fd5b600033905060008173ffffffffffffffffffffffffffffffffffffffff1683604051610e5d906121cf565b60006040518083038185875af1925050503d8060008114610e9a576040519150601f19603f3d011682016040523d82523d6000602084013e610e9f565b606091505b5050905080610ee3576040517f08c379a0000000000000000000000000000000000000000000000000000000008152600401610eda90612721565b60405180910390fd5b6000600960003373ffffffffffffffffffffffffffffffffffffffff1673ffffffffffffffffffffffffffffffffffffffff168152602001908152602001600020819055508260056000828254610f3a9190612741565b925050819055507f7de468ad197c4fe7792a8ba2667fa5f300f4ff197b247809680a549b7c1be67e338442604051610f7493929190611ee5565b60405180910390a1505050565b60008060008060006060600080600160009054906101000a900473ffffffffffffffffffffffffffffffffffffffff166002546003546004546005546006610fc96007611476565b600854828054610fd8906127a4565b80601f0160208091040260200160405190810160405280929190818152602001828054611004906127a4565b80156110515780601f1061102657610100808354040283529160200191611051565b820191906000526020600020905b81548152906001019060200180831161103457829003601f168201915b50505050509250975097509750975097509750975097509091929394959697565b61107a611484565b6110846000611502565b565b60008060009054906101000a900473ffffffffffffffffffffffffffffffffffffffff16905090565b60085481565b4260035410156110fa576040517f08c379a00000000000000000000000000000000000000000000000000000000081526004016110f190612821565b60405180910390fd5b60085434101561113f576040517f08c379a0000000000000000000000000000000000000000000000000000000008152600401611136906128b3565b60405180910390fd5b611148336115c6565b6111ba57600a339080600181540180825580915050600190039060005260206000200160009091909190916101000a81548173ffffffffffffffffffffffffffffffffffffffff021916908373ffffffffffffffffffffffffffffffffffffffff1602179055506111b960076116d5565b5b34600960003373ffffffffffffffffffffffffffffffffffffffff1673ffffffffffffffffffffffffffffffffffffffff168152602001908152602001600020600082825461120991906128d3565b92505081905550346005600082825461122291906128d3565b925050819055507e70cd81276c355f748296dd0c89eac73e3e7a10c8c7997771e56e8e6cafceed33344260405161125b93929190611ee5565b60405180910390a1565b600160009054906101000a900473ffffffffffffffffffffffffffffffffffffffff1673ffffffffffffffffffffffffffffffffffffffff163373ffffffffffffffffffffffffffffffffffffffff16146112f5576040517f08c379a00000000000000000000000000000000000000000000000000000000081526004016112ec90611f8e565b60405180910390fd5b6000611301600c611476565b905061130d600c6116d5565b6000600b60008381526020019081526020016000209050848160010160006101000a81548173ffffffffffffffffffffffffffffffffffffffff021916908373ffffffffffffffffffffffffffffffffffffffff16021790555083816002018190555060008160030160006101000a81548160ff02191690831515021790555060008160040181905550828160000190816113a89190612aa9565b507f7f0ef5a83d25461e5c24f8cbe7146ac55fe50eeafb7ff5547100d258310f454560008587600086886040516113e496959493929190612bb6565b60405180910390a15050505050565b6113fb611484565b600073ffffffffffffffffffffffffffffffffffffffff168173ffffffffffffffffffffffffffffffffffffffff160361146a576040517f08c379a000000000000000000000000000000000000000000000000000000000815260040161146190612c90565b60405180910390fd5b61147381611502565b50565b600081600001549050919050565b61148c6116eb565b73ffffffffffffffffffffffffffffffffffffffff166114aa611086565b73ffffffffffffffffffffffffffffffffffffffff1614611500576040517f08c379a00000000000000000000000000000000000000000000000000000000081526004016114f790612cfc565b60405180910390fd5b565b60008060009054906101000a900473ffffffffffffffffffffffffffffffffffffffff169050816000806101000a81548173ffffffffffffffffffffffffffffffffffffffff021916908373ffffffffffffffffffffffffffffffffffffffff1602179055508173ffffffffffffffffffffffffffffffffffffffff168173ffffffffffffffffffffffffffffffffffffffff167f8be0079c531659141344cd1fd0a4f28419497f9722a3daafe3b4186f6b6457e060405160405180910390a35050565b600080600a80548060200260200160405190810160405280929190818152602001828054801561164b57602002820191906000526020600020905b8160009054906101000a900473ffffffffffffffffffffffffffffffffffffffff1673ffffffffffffffffffffffffffffffffffffffff1681526020019060010190808311611601575b5050505050905060005b81518110156116c9578373ffffffffffffffffffffffffffffffffffffffff168282815181106116885761168761253c565b5b602002602001015173ffffffffffffffffffffffffffffffffffffffff16036116b6576001925050506116d0565b80806116c190611e9d565b915050611655565b5060009150505b919050565b6001816000016000828254019250508190555050565b600033905090565b6040518060400160405280600073ffffffffffffffffffffffffffffffffffffffff168152602001600081525090565b6000604051905090565b600080fd5b600080fd5b6000819050919050565b61174a81611737565b811461175557600080fd5b50565b60008135905061176781611741565b92915050565b6000602082840312156117835761178261172d565b5b600061179184828501611758565b91505092915050565b6117a381611737565b82525050565b60006020820190506117be600083018461179a565b92915050565b600073ffffffffffffffffffffffffffffffffffffffff82169050919050565b60006117ef826117c4565b9050919050565b6117ff816117e4565b811461180a57600080fd5b50565b60008135905061181c816117f6565b92915050565b600080604083850312156118395761183861172d565b5b60006118478582860161180d565b925050602061185885828601611758565b9150509250929050565b60008115159050919050565b61187781611862565b82525050565b6000602082019050611892600083018461186e565b92915050565b6000602082840312156118ae576118ad61172d565b5b60006118bc8482850161180d565b91505092915050565b6118ce816117e4565b82525050565b60006020820190506118e960008301846118c5565b92915050565b600081519050919050565b600082825260208201905092915050565b6000819050602082019050919050565b611924816117e4565b82525050565b61193381611737565b82525050565b60408201600082015161194f600085018261191b565b506020820151611962602085018261192a565b50505050565b60006119748383611939565b60408301905092915050565b6000602082019050919050565b6000611998826118ef565b6119a281856118fa565b93506119ad8361190b565b8060005b838110156119de5781516119c58882611968565b97506119d083611980565b9250506001810190506119b1565b5085935050505092915050565b60006020820190508181036000830152611a05818461198d565b905092915050565b600081519050919050565b600082825260208201905092915050565b60005b83811015611a47578082015181840152602081019050611a2c565b60008484015250505050565b6000601f19601f8301169050919050565b6000611a6f82611a0d565b611a798185611a18565b9350611a89818560208601611a29565b611a9281611a53565b840191505092915050565b600061010082019050611ab3600083018b6118c5565b611ac0602083018a61179a565b611acd604083018961179a565b611ada606083018861179a565b611ae7608083018761179a565b81810360a0830152611af98186611a64565b9050611b0860c083018561179a565b611b1560e083018461179a565b9998505050505050505050565b6000611b2d826117c4565b9050919050565b611b3d81611b22565b8114611b4857600080fd5b50565b600081359050611b5a81611b34565b92915050565b600080fd5b600080fd5b7f4e487b7100000000000000000000000000000000000000000000000000000000600052604160045260246000fd5b611ba282611a53565b810181811067ffffffffffffffff82111715611bc157611bc0611b6a565b5b80604052505050565b6000611bd4611723565b9050611be08282611b99565b919050565b600067ffffffffffffffff821115611c0057611bff611b6a565b5b611c0982611a53565b9050602081019050919050565b82818337600083830152505050565b6000611c38611c3384611be5565b611bca565b905082815260208101848484011115611c5457611c53611b65565b5b611c5f848285611c16565b509392505050565b600082601f830112611c7c57611c7b611b60565b5b8135611c8c848260208601611c25565b91505092915050565b600080600060608486031215611cae57611cad61172d565b5b6000611cbc86828701611b4b565b9350506020611ccd86828701611758565b925050604084013567ffffffffffffffff811115611cee57611ced611732565b5b611cfa86828701611c67565b9150509250925092565b7f52657175657374206e756d626572206973206e6f742076616c69642121000000600082015250565b6000611d3a601d83611a18565b9150611d4582611d04565b602082019050919050565b60006020820190508181036000830152611d6981611d2d565b9050919050565b7f596f7520617265206e6f7420636f6e7472696275746f7220706c65617365206360008201527f6f6e747269627574652066697273742100000000000000000000000000000000602082015250565b6000611dcc603083611a18565b9150611dd782611d70565b604082019050919050565b60006020820190508181036000830152611dfb81611dbf565b9050919050565b7f596f75206861766520616c726561647920766f74656421210000000000000000600082015250565b6000611e38601883611a18565b9150611e4382611e02565b602082019050919050565b60006020820190508181036000830152611e6781611e2b565b9050919050565b7f4e487b7100000000000000000000000000000000000000000000000000000000600052601160045260246000fd5b6000611ea882611737565b91507fffffffffffffffffffffffffffffffffffffffffffffffffffffffffffffffff8203611eda57611ed9611e6e565b5b600182019050919050565b6000606082019050611efa60008301866118c5565b611f07602083018561179a565b611f14604083018461179a565b949350505050565b7f596f7520617265206e6f74206d616e61676572206f6620746869732063616d7060008201527f6169676e21000000000000000000000000000000000000000000000000000000602082015250565b6000611f78602583611a18565b9150611f8382611f1c565b604082019050919050565b60006020820190508181036000830152611fa781611f6b565b9050919050565b7f54617267657420616d6f756e7420686173206e6f74206265656e20726561636860008201527f6564207965742100000000000000000000000000000000000000000000000000602082015250565b600061200a602783611a18565b915061201582611fae565b604082019050919050565b6000602082019050818103600083015261203981611ffd565b9050919050565b7f5265717565737420697320616c726561647920636f6d706c6574656421000000600082015250565b6000612076601d83611a18565b915061208182612040565b602082019050919050565b600060208201905081810360008301526120a581612069565b9050919050565b7f4e487b7100000000000000000000000000000000000000000000000000000000600052601260045260246000fd5b60006120e682611737565b91506120f183611737565b925082612101576121006120ac565b5b828204905092915050565b7f4d616a6f7269747920766f74657320686173206e6f74206265656e207265616360008201527f6865642100000000000000000000000000000000000000000000000000000000602082015250565b6000612168602483611a18565b91506121738261210c565b604082019050919050565b600060208201905081810360008301526121978161215b565b9050919050565b600081905092915050565b50565b60006121b960008361219e565b91506121c4826121a9565b600082019050919050565b60006121da826121ac565b9150819050919050565b7f4661696c656420746f207472616e736665722065746865722121000000000000600082015250565b600061221a601a83611a18565b9150612225826121e4565b602082019050919050565b600060208201905081810360008301526122498161220d565b9050919050565b6000819050919050565b600061227561227061226b846117c4565b612250565b6117c4565b9050919050565b60006122878261225a565b9050919050565b60006122998261227c565b9050919050565b6122a98161228e565b82525050565b60006080820190506122c4600083018761186e565b6122d1602083018661179a565b6122de60408301856122a0565b6122eb606083018461179a565b95945050505050565b7f596f75206d757374206e65656420746f20626520636f6e7472696275746f722060008201527f6f7220796f7520636f6e747269627574696f6e206d757374206265206772656160208201527f746572207468616e203020657468657200000000000000000000000000000000604082015250565b6000612376605083611a18565b9150612381826122f4565b606082019050919050565b600060208201905081810360008301526123a581612369565b9050919050565b7f496e76616c69642072657175657374206e756d62657221000000000000000000600082015250565b60006123e2601783611a18565b91506123ed826123ac565b602082019050919050565b60006020820190508181036000830152612411816123d5565b9050919050565b7f596f757220636f6e747269627574696f6e206d7573742062652067726561746560008201527f72207468616e2030206574686572000000000000000000000000000000000000602082015250565b6000612474602e83611a18565b915061247f82612418565b604082019050919050565b600060208201905081810360008301526124a381612467565b9050919050565b7f4d696e20636f6e747269627574696f6e206d757374206265206772656174657260008201527f207468616e203020657468657221000000000000000000000000000000000000602082015250565b6000612506602e83611a18565b9150612511826124aa565b604082019050919050565b60006020820190508181036000830152612535816124f9565b9050919050565b7f4e487b7100000000000000000000000000000000000000000000000000000000600052603260045260246000fd5b7f446561646c696e6520686173206e6f7420706173736564210000000000000000600082015250565b60006125a1601883611a18565b91506125ac8261256b565b602082019050919050565b600060208201905081810360008301526125d081612594565b9050919050565b7f52616973656420616d6f756e7420686173207265616368656420746f2074617260008201527f6765742100000000000000000000000000000000000000000000000000000000602082015250565b6000612633602483611a18565b915061263e826125d7565b604082019050919050565b6000602082019050818103600083015261266281612626565b9050919050565b7f596f752068617665206e6f742066756e64656420616e7920616d6f756e742121600082015250565b600061269f602083611a18565b91506126aa82612669565b602082019050919050565b600060208201905081810360008301526126ce81612692565b9050919050565b7f4661696c656420746f20726566756e6421000000000000000000000000000000600082015250565b600061270b601183611a18565b9150612716826126d5565b602082019050919050565b6000602082019050818103600083015261273a816126fe565b9050919050565b600061274c82611737565b915061275783611737565b925082820390508181111561276f5761276e611e6e565b5b92915050565b7f4e487b7100000000000000000000000000000000000000000000000000000000600052602260045260246000fd5b600060028204905060018216806127bc57607f821691505b6020821081036127cf576127ce612775565b5b50919050565b7f446561646c696e65206861732070617373656421000000000000000000000000600082015250565b600061280b601483611a18565b9150612816826127d5565b602082019050919050565b6000602082019050818103600083015261283a816127fe565b9050919050565b7f4d75737420686176652076616c75652067726561746572207468616e206f722060008201527f657175616c20746f206d696e696d756d20636f6e747269627574696f6e212100602082015250565b600061289d603f83611a18565b91506128a882612841565b604082019050919050565b600060208201905081810360008301526128cc81612890565b9050919050565b60006128de82611737565b91506128e983611737565b925082820190508082111561290157612900611e6e565b5b92915050565b60008190508160005260206000209050919050565b60006020601f8301049050919050565b600082821b905092915050565b6000600883026129697fffffffffffffffffffffffffffffffffffffffffffffffffffffffffffffffff8261292c565b612973868361292c565b95508019841693508086168417925050509392505050565b60006129a66129a161299c84611737565b612250565b611737565b9050919050565b6000819050919050565b6129c08361298b565b6129d46129cc826129ad565b848454612939565b825550505050565b600090565b6129e96129dc565b6129f48184846129b7565b505050565b5b81811015612a1857612a0d6000826129e1565b6001810190506129fa565b5050565b601f821115612a5d57612a2e81612907565b612a378461291c565b81016020851015612a46578190505b612a5a612a528561291c565b8301826129f9565b50505b505050565b600082821c905092915050565b6000612a8060001984600802612a62565b1980831691505092915050565b6000612a998383612a6f565b9150826002028217905092915050565b612ab282611a0d565b67ffffffffffffffff811115612acb57612aca611b6a565b5b612ad582546127a4565b612ae0828285612a1c565b600060209050601f831160018114612b135760008415612b01578287015190505b612b0b8582612a8d565b865550612b73565b601f198416612b2186612907565b60005b82811015612b4957848901518255600182019150602085019450602081019050612b24565b86831015612b665784890151612b62601f891682612a6f565b8355505b6001600288020188555050505b505050505050565b6000819050919050565b6000612ba0612b9b612b9684612b7b565b612250565b611737565b9050919050565b612bb081612b85565b82525050565b600060c082019050612bcb600083018961186e565b612bd8602083018861179a565b612be560408301876122a0565b612bf26060830186612ba7565b612bff608083018561179a565b81810360a0830152612c118184611a64565b9050979650505050505050565b7f4f776e61626c653a206e6577206f776e657220697320746865207a65726f206160008201527f6464726573730000000000000000000000000000000000000000000000000000602082015250565b6000612c7a602683611a18565b9150612c8582612c1e565b604082019050919050565b60006020820190508181036000830152612ca981612c6d565b9050919050565b7f4f776e61626c653a2063616c6c6572206973206e6f7420746865206f776e6572600082015250565b6000612ce6602083611a18565b9150612cf182612cb0565b602082019050919050565b60006020820190508181036000830152612d1581612cd9565b905091905056fea2646970667358221220417240cf3d09451fae519e986d4685acbeff1456c3bcedbeb8c52000b49cf86064736f6c63430008110033",
  "linkReferences": {},
  "deployedLinkReferences": {}
}